{
  "contractName": "Ballot",
  "abi": [
    {
      "constant": true,
      "inputs": [
        {
          "name": "",
          "type": "uint256"
        }
      ],
      "name": "proposals",
      "outputs": [
        {
          "name": "name",
          "type": "bytes32"
        },
        {
          "name": "voteCount",
          "type": "uint256"
        }
      ],
      "payable": false,
      "stateMutability": "view",
      "type": "function"
    },
    {
      "constant": true,
      "inputs": [],
      "name": "chairperson",
      "outputs": [
        {
          "name": "",
          "type": "address"
        }
      ],
      "payable": false,
      "stateMutability": "view",
      "type": "function"
    },
    {
      "constant": true,
      "inputs": [
        {
          "name": "",
          "type": "address"
        }
      ],
      "name": "voters",
      "outputs": [
        {
          "name": "weight",
          "type": "uint256"
        },
        {
          "name": "voted",
          "type": "bool"
        },
        {
          "name": "delegate",
          "type": "address"
        },
        {
          "name": "vote",
          "type": "uint256"
        }
      ],
      "payable": false,
      "stateMutability": "view",
      "type": "function"
    },
    {
      "inputs": [
        {
          "name": "proposalNames",
          "type": "bytes32[]"
        }
      ],
      "payable": false,
      "stateMutability": "nonpayable",
      "type": "constructor"
    },
    {
      "constant": true,
      "inputs": [],
      "name": "proposalsNumber",
      "outputs": [
        {
          "name": "proposalsNumber_",
          "type": "uint256"
        }
      ],
      "payable": false,
      "stateMutability": "view",
      "type": "function"
    },
    {
      "constant": false,
      "inputs": [
        {
          "name": "voter",
          "type": "address"
        }
      ],
      "name": "giveRightToVote",
      "outputs": [],
      "payable": false,
      "stateMutability": "nonpayable",
      "type": "function"
    },
    {
      "constant": false,
      "inputs": [
        {
          "name": "to",
          "type": "address"
        }
      ],
      "name": "delegate",
      "outputs": [],
      "payable": false,
      "stateMutability": "nonpayable",
      "type": "function"
    },
    {
      "constant": false,
      "inputs": [
        {
          "name": "proposal",
          "type": "uint256"
        }
      ],
      "name": "vote",
      "outputs": [],
      "payable": false,
      "stateMutability": "nonpayable",
      "type": "function"
    },
    {
      "constant": true,
      "inputs": [],
      "name": "winningProposal",
      "outputs": [
        {
          "name": "winningProposal_",
          "type": "uint256"
        }
      ],
      "payable": false,
      "stateMutability": "view",
      "type": "function"
    },
    {
      "constant": true,
      "inputs": [],
      "name": "winnerName",
      "outputs": [
        {
          "name": "winnerName_",
          "type": "bytes32"
        }
      ],
      "payable": false,
      "stateMutability": "view",
      "type": "function"
    }
  ],
  "bytecode": "0x608060405234801561001057600080fd5b50604051610e37380380610e37833981018060405281019080805182019291905050506000336000806101000a81548173ffffffffffffffffffffffffffffffffffffffff021916908373ffffffffffffffffffffffffffffffffffffffff16021790555060018060008060009054906101000a900473ffffffffffffffffffffffffffffffffffffffff1673ffffffffffffffffffffffffffffffffffffffff1673ffffffffffffffffffffffffffffffffffffffff16815260200190815260200160002060000181905550600090505b81518110156101735760026040805190810160405280848481518110151561010657fe5b90602001906020020151600019168152602001600081525090806001815401808255809150509060018203906000526020600020906002020160009091929091909150600082015181600001906000191690556020820151816001015550505080806001019150506100e2565b5050610cb3806101846000396000f300608060405260043610610099576000357c0100000000000000000000000000000000000000000000000000000000900463ffffffff1680630121b93f1461009e578063013cf08b146100cb5780632e4176cf1461011b5780635c19a95c14610172578063609ff1bd146101b55780639e7b8d61146101e0578063a3ec138d14610223578063d27d1bc4146102bf578063e2ba53f0146102ea575b600080fd5b3480156100aa57600080fd5b506100c96004803603810190808035906020019092919050505061031d565b005b3480156100d757600080fd5b506100f660048036038101908080359060200190929190505050610443565b6040518083600019166000191681526020018281526020019250505060405180910390f35b34801561012757600080fd5b50610130610476565b604051808273ffffffffffffffffffffffffffffffffffffffff1673ffffffffffffffffffffffffffffffffffffffff16815260200191505060405180910390f35b34801561017e57600080fd5b506101b3600480360381019080803573ffffffffffffffffffffffffffffffffffffffff16906020019092919050505061049b565b005b3480156101c157600080fd5b506101ca6108c0565b6040518082815260200191505060405180910390f35b3480156101ec57600080fd5b50610221600480360381019080803573ffffffffffffffffffffffffffffffffffffffff16906020019092919050505061093b565b005b34801561022f57600080fd5b50610264600480360381019080803573ffffffffffffffffffffffffffffffffffffffff169060200190929190505050610bee565b60405180858152602001841515151581526020018373ffffffffffffffffffffffffffffffffffffffff1673ffffffffffffffffffffffffffffffffffffffff16815260200182815260200194505050505060405180910390f35b3480156102cb57600080fd5b506102d4610c4b565b6040518082815260200191505060405180910390f35b3480156102f657600080fd5b506102ff610c58565b60405180826000191660001916815260200191505060405180910390f35b6000600160003373ffffffffffffffffffffffffffffffffffffffff1673ffffffffffffffffffffffffffffffffffffffff16815260200190815260200160002090508060010160009054906101000a900460ff161515156103e7576040517f08c379a000000000000000000000000000000000000000000000000000000000815260040180806020018281038252600e8152602001807f616c726561647920766f7465642e00000000000000000000000000000000000081525060200191505060405180910390fd5b60018160010160006101000a81548160ff021916908315150217905550818160020181905550806000015460028381548110151561042157fe5b9060005260206000209060020201600101600082825401925050819055505050565b60028181548110151561045257fe5b90600052602060002090600202016000915090508060000154908060010154905082565b6000809054906101000a900473ffffffffffffffffffffffffffffffffffffffff1681565b600080600160003373ffffffffffffffffffffffffffffffffffffffff1673ffffffffffffffffffffffffffffffffffffffff16815260200190815260200160002091508160010160009054906101000a900460ff16151515610566576040517f08c379a00000000000000000000000000000000000000000000000000000000081526004018080602001828103825260178152602001807f796f75206861766520616c726561647920766f7465642e00000000000000000081525060200191505060405180910390fd5b3373ffffffffffffffffffffffffffffffffffffffff168373ffffffffffffffffffffffffffffffffffffffff161415151561060a576040517f08c379a000000000000000000000000000000000000000000000000000000000815260040180806020018281038252601f8152602001807f73656c662d64656c65676174696f6e206973206e6f7420616c6c6f7765642e0081525060200191505060405180910390fd5b5b600073ffffffffffffffffffffffffffffffffffffffff16600160008573ffffffffffffffffffffffffffffffffffffffff1673ffffffffffffffffffffffffffffffffffffffff16815260200190815260200160002060010160019054906101000a900473ffffffffffffffffffffffffffffffffffffffff1673ffffffffffffffffffffffffffffffffffffffff161415156107b157600160008473ffffffffffffffffffffffffffffffffffffffff1673ffffffffffffffffffffffffffffffffffffffff16815260200190815260200160002060010160019054906101000a900473ffffffffffffffffffffffffffffffffffffffff1692503373ffffffffffffffffffffffffffffffffffffffff168373ffffffffffffffffffffffffffffffffffffffff16141515156107ac576040517f08c379a00000000000000000000000000000000000000000000000000000000081526004018080602001828103825260198152602001807f466f756e64206c6f6f7020696e2064656c65676174696f6e2e0000000000000081525060200191505060405180910390fd5b61060b565b60018260010160006101000a81548160ff021916908315150217905550828260010160016101000a81548173ffffffffffffffffffffffffffffffffffffffff021916908373ffffffffffffffffffffffffffffffffffffffff160217905550600160008473ffffffffffffffffffffffffffffffffffffffff1673ffffffffffffffffffffffffffffffffffffffff16815260200190815260200160002090508060010160009054906101000a900460ff16156108a45781600001546002826002015481548110151561088157fe5b9060005260206000209060020201600101600082825401925050819055506108bb565b816000015481600001600082825401925050819055505b505050565b6000806000809150600090505b60028054905081101561093657816002828154811015156108ea57fe5b90600052602060002090600202016001015411156109295760028181548110151561091157fe5b90600052602060002090600202016001015491508092505b80806001019150506108cd565b505090565b6000809054906101000a900473ffffffffffffffffffffffffffffffffffffffff1673ffffffffffffffffffffffffffffffffffffffff163373ffffffffffffffffffffffffffffffffffffffff16141515610a25576040517f08c379a00000000000000000000000000000000000000000000000000000000081526004018080602001828103825260288152602001807f6f6e6c79206368616972706572736f6e2063616e20676976652072696768742081526020017f746f20766f74652e00000000000000000000000000000000000000000000000081525060400191505060405180910390fd5b600160008273ffffffffffffffffffffffffffffffffffffffff1673ffffffffffffffffffffffffffffffffffffffff16815260200190815260200160002060010160009054906101000a900460ff16151515610aea576040517f08c379a00000000000000000000000000000000000000000000000000000000081526004018080602001828103825260188152602001807f74686520766f74657220616c726561647920766f7465642e000000000000000081525060200191505060405180910390fd5b6000600160008373ffffffffffffffffffffffffffffffffffffffff1673ffffffffffffffffffffffffffffffffffffffff16815260200190815260200160002060000154141515610ba4576040517f08c379a00000000000000000000000000000000000000000000000000000000081526004018080602001828103825260208152602001807f766f746572277320696e697469616c20776569676874206d757374206265203081525060200191505060405180910390fd5b60018060008373ffffffffffffffffffffffffffffffffffffffff1673ffffffffffffffffffffffffffffffffffffffff1681526020019081526020016000206000018190555050565b60016020528060005260406000206000915090508060000154908060010160009054906101000a900460ff16908060010160019054906101000a900473ffffffffffffffffffffffffffffffffffffffff16908060020154905084565b6000600280549050905090565b60006002610c646108c0565b815481101515610c7057fe5b9060005260206000209060020201600001549050905600a165627a7a72305820c9f5af33feef0d2384708a925eab195286d3c1c0504bbeceb59a9785de5adbb40029",
  "source": "pragma solidity  ^0.4.22;\n\ncontract Ballot {\n\n    struct Voter {\n        uint256 weight;\n        bool voted;\n        address delegate;\n        uint256 vote;\n    }\n\n    struct Proposal {\n        bytes32 name;\n        uint256 voteCount;\n    }\n\n    address public chairperson;\n\n    mapping(address=>Voter) public voters;\n\n    Proposal[] public proposals;\n\n    function proposalsNumber() public view returns (uint256 proposalsNumber_){\n        proposalsNumber_ = proposals.length;\n    }\n\n    constructor(bytes32[] proposalNames) public {\n        chairperson = msg.sender;\n        voters[chairperson].weight = 1;\n        for(uint256 i =0 ;i<proposalNames.length;i++){\n            proposals.push(Proposal({\n                name:proposalNames[i],\n                voteCount:0\n                }));\n        }\n    }\n\n    function giveRightToVote(address voter) public {\n        require(\n            msg.sender == chairperson,\n            \"only chairperson can give right to vote.\"\n        );\n\n        require(\n            !voters[voter].voted,\n            \"the voter already voted.\"\n        );\n\n        require(\n            voters[voter].weight==0,\n            \"voter's initial weight must be 0\"\n        );\n        voters[voter].weight = 1;\n    }\n\n    function delegate(address to) public {\n        Voter storage sender = voters[msg.sender];\n        require(!sender.voted,\"you have already voted.\");\n\n        require(to != msg.sender,\"self-delegation is not allowed.\");\n\n        while(voters[to].delegate != address(0)){\n            to = voters[to].delegate;\n            require(to!=msg.sender,\"Found loop in delegation.\");\n        }\n\n        sender.voted = true;\n        sender.delegate = to;\n        Voter storage delegate_ = voters[to];\n        if(delegate_.voted){\n            proposals[delegate_.vote].voteCount += sender.weight;\n        }else {\n            delegate_.weight += sender.weight;\n        }\n    }\n\n    function vote(uint256 proposal) public {\n        Voter storage sender = voters[msg.sender];\n        require(!sender.voted,\"already voted.\");\n        sender.voted = true;\n        sender.vote = proposal;\n        proposals[proposal].voteCount += sender.weight;\n    }\n\n    function winningProposal() public view returns (uint256 winningProposal_) {\n        uint256 winningVoteCount = 0;\n        for(uint256 p = 0 ;p<proposals.length;p++){\n            if(proposals[p].voteCount>winningVoteCount){\n                winningVoteCount = proposals[p].voteCount;\n                winningProposal_ = p;\n            }\n        }\n    }\n\n    function winnerName() public view returns (bytes32 winnerName_) {\n        winnerName_ = proposals[winningProposal()].name;\n    }\n}",
  "sourcePath": "/Users/yves/nodeworkspace/truffle_learn_10_erc20/contracts/Ballot.sol",
  "compiler": {
    "name": "solc",
    "version": "0.4.24+commit.e67f0147.Emscripten.clang"
  },
  "schemaVersion": "2.0.1",
  "updatedAt": "2018-11-16T02:09:39.887Z"
}